:04000000E0EF08F035
:10060000006573636F6C6861206120626562696474
:100610006100436F6C6F717565206F20636F706F41
:100620002065004361666520636F6D204C656974C9
:100630006500456D206171756563696D656E746FE8
:1006400000507265706172616E646F2E2E2E0042D2
:1006500065626964612070726F6E746100416775D4
:10066000617264652E2E2E0043686F636F6C65693E
:1006700074650043616665204C6F6E676F0043616F
:100680007070756363696E6F0043616665204375C2
:1006900072746F0053697276612D7365210043682F
:0906A0006F636F6C61746500006A
:1006AA000A6E95949598959A959C959E9592959093
:1006BA000AB002D0839001D0838003B002D0839223
:1006CA0001D0838203500410D8A46EEF03F070EFB8
:1006DA0003F0EBEF03F0086A05AE01D0082A0846DA
:1006EA00084683500818FB0B0818836E05C008F0EB
:1006FA00060E096ED8900832092E7FEF03F0083AE9
:10070A0083500818EF0B0818836E05C008F0050E11
:10071A00096ED8900832092E8EEF03F0083A08467F
:10072A0083500818DF0B0818836E05C008F0083AD2
:10073A000F0E0816083A0846084683500818BF0BD9
:10074A000818836E838E000E026E020E016E07EC8D
:10075A0009F0839E05C008F0D8900832D890083274
:10076A00D89008320846084683500818FB0B081828
:10077A00836E05C008F0D8900832D8900832083A3B
:10078A0083500818EF0B0818836E05C008F0D8903C
:10079A000832083A084683500818DF0B0818836E97
:1007AA0005B002D0839C01D0838C838E000E026E2A
:1007BA00020E016E07EC09F0839E06C001F007C025
:1007CA0002F007EC09F0000E6CEF04F095849588AE
:1007DA00958A958C838E000E026E020E016E07ECCE
:1007EA0009F0000E83B4010E0B6E83B8FFEF03F01D
:1007FA0003EF04F0086A082A04EF04F0086A0B50B1
:10080A000B2408100B6E83BA0DEF04F011EF04F0FD
:10081A00086A082A12EF04F0086A0B500B24081021
:10082A000B6E83BC1BEF04F01FEF04F0086A082A62
:10083A0020EF04F0086A0B500B2408100B6E839EFD
:10084A00838E000E026E020E016E07EC09F083B46D
:10085A0031EF04F035EF04F0086A082A36EF04F0A5
:10086A00086A0B500B2408100B6E83B83FEF04F094
:10087A0043EF04F0086A082A44EF04F0086A0B50B0
:10088A000B2408100B6E83BA4DEF04F051EF04F0FD
:10089A00086A082A52EF04F0086A0B500B24081061
:1008AA000B6E83BC5BEF04F05FEF04F0086A082A62
:1008BA0060EF04F0086A0B500B2408100B6E839E3D
:1008CA0006C001F007C002F007EC09F00B50120055
:1008DA00F5EC08F0F5EC07F0000E346E000E336EFE
:1008EA00818E19EC08F082A07DEF04F07FEF04F00E
:1008FA0075EF04F080B084EF04F086EF04F0A1EF06
:10090A0004F033503410D8A48DEF04F08FEF04F0C4
:10091A00A1EF04F0000E326E000E316E070E306E3B
:10092A00170E2F6E6A0EE82EFED72F2EFCD7302E0A
:10093A00FAD700D025EF05F080B2A6EF04F0A8EFB1
:10094A0004F0B7EF04F033503410D8A4AFEF04F03A
:10095A00B1EF04F0B7EF04F0000E326E010E316E03
:10096A0093EF04F080B4BCEF04F0BEEF04F0CDEFD7
:10097A0004F033503410D8A4C5EF04F0C7EF04F0E4
:10098A00CDEF04F0000E326E020E316E93EF04F0DA
:10099A0080B6D2EF04F0D4EF04F0E3EF04F0335062
:1009AA003410D8A4DBEF04F0DDEF04F0E3EF04F039
:1009BA00000E326E030E316E93EF04F080B8E8EF4A
:1009CA0004F0EAEF04F0F9EF04F033503410D8A43D
:1009DA00F1EF04F0F3EF04F0F9EF04F0000E326ED9
:1009EA00040E316E93EF04F080BAFEEF04F000EFCC
:1009FA0005F00FEF05F033503410D8A407EF05F0D7
:100A0A0009EF05F00FEF05F0000E326E050E316E9C
:100A1A0093EF04F080BC14EF05F016EF05F075EFC4
:100A2A0004F033503410D8A41DEF05F01FEF05F081
:100A3A0075EF04F0000E326E060E316E93EF04F07D
:100A4A0031C012F032C013F0FDEC05F031C012F0E3
:100A5A0032C013F00EEC07F0829071EF04F000EF51
:100A6A0000F00F6E20EE35F010EE10F0050EDBCF21
:100A7A00E3FFE806FCE20FC012F00CC013F00DC051
:100A8A0014F095949598959A959C959E9592959023
:100A9A0083908392839E4E0E026E200E016E07ECA7
:100AAA0009F0000E166E10C00EF0D8900E32D890D3
:100ABA000E32D8900E320E460E4683500E18FB0B9D
:100ACA000E18836E10C00EF0D8900E32D8900E32E7
:100ADA000E3A83500E18EF0B0E18836E10C00EF0EC
:100AEA00D8900E320E3A0E4683500E18DF0B0E18AF
:100AFA00836E10B002D0839C01D0838C838E000E4B
:100B0A00026E020E016E07EC09F0839E130E026E4E
:100B1A00880E016E07EC09F0162A020E166498EF89
:100B2A0005F09AEF05F058EF05F011C00EF0D890D5
:100B3A000E32D8900E32D8900E320E460E468350A0
:100B4A000E18FB0B0E18836E11C00EF0D8900E32E1
:100B5A00D8900E320E3A83500E18EF0B0E18836E91
:100B6A0011C00EF0D8900E320E3A0E4683500E186F
:100B7A00DF0B0E18836E11B002D0839C01D0838CD8
:100B8A00838E000E026E020E016E07EC09F0839E40
:100B9A00000E026E280E016E07EC09F0000E046EBC
:100BAA00000E036E12C005F0000E076E280E066EC8
:100BBA00000E55EC03F0000E046E000E036E13C017
:100BCA0005F0000E076E280E066E000E55EC03F0B7
:100BDA00000E046E000E036E14C005F0000E076EC0
:100BEA00280E066E000E55EC03F026EC09F01200F2
:100BFA0032EF06F0160E016E890E026EC7EC08F08F
:100C0A0058EF06F0160E016E730E026EC7EC08F06E
:100C1A0058EF06F0160E016E230E026EC7EC08F0AE
:100C2A0058EF06F0160E016E7E0E026EC7EC08F043
:100C3A0058EF06F0160E016E9E0E026EC7EC08F013
:100C4A0058EF06F0160E016E680E026EC7EC08F039
:100C5A0058EF06F0FF0058EF06F012C014F013C068
:100C6A0015F01550000AD8B43DEF06F02FEF06F044
:100C7A001450000AD8B4FFEF05F0010AD8B407EF00
:100C8A0006F0030AD8B40FEF06F0010AD8B417EF3A
:100C9A0006F0070AD8B41FEF06F0010AD8B427EF06
:100CAA0006F02FEF06F026EC09F0000EABEC08F088
:100CBA00010E0C6E010E75EC06F0160E0D6E0E6A24
:100CCA004FEC07F0010E0C6E020E75EC06F0410EA9
:100CDA000D6E0D50D8A4060E0E6E4FEC07F01200E2
:100CEA000D6EB8EF06F0000E046E000E036E0C5087
:100CFA007F0F056E000E076E280E066E000E55EC6D
:100D0A0003F0CBEF06F0000E046E000E036E0C50DB
:100D1A00BF0F056E000E076E280E066E000E55EC0C
:100D2A0003F0CBEF06F0000E046E000E036E0C50BB
:100D3A00930F056E000E076E280E066E000E55EC18
:100D4A0003F0CBEF06F0000E046E000E036E0C509B
:100D5A00D30F056E000E076E280E066E000E55ECB8
:100D6A0003F0CBEF06F00D50010AD8B478EF06F085
:100D7A00030AD8B488EF06F0010AD8B498EF06F04F
:100D8A00070AD8B4A8EF06F0CBEF06F01200000E5F
:100D9A00CD6ECD92300ECD12000E046E170E036E7C
:100DAA001C0E0A6EA00E096E000E066E000E056E6F
:100DBA0002EF07F0000E086E000E076EF5EF06F060
:100DCA000A50CF6E09C0CEFF9E90CD809EA0F0EF54
:100DDA0006F0F2EF06F0EBEF06F0CD90074A082A8C
:100DEA000350075C04500858D8A0FEEF06F000EF45
:100DFA0007F0E5EF06F0054A062A0150055C0250A5
:100E0A000658D8A00BEF07F00DEF07F0DFEF06F05A
:100E1A00120028EF07F08EEC08F04EEF07F071ECA5
:100E2A0008F04EEF07F0D0EC07F04EEF07F07EEC3B
:100E3A0007F04EEF07F054EC08F04EEF07F037ECEE
:100E4A0008F04EEF07F012C014F013C015F0155059
:100E5A00000AD8B433EF07F04EEF07F01450000A37
:100E6A00D8B410EF07F0010AD8B414EF07F0030A58
:100E7A00D8B418EF07F0010AD8B41CEF07F0070A34
:100E8A00D8B420EF07F0010AD8B424EF07F04EEFE8
:100E9A0007F0120065EF07F00DC0F6FF0EC0F7FF6E
:100EAA00F86A050EF76403D00800F55005D0F6CFAE
:100EBA00E1FFF7CFE2FFE75017EC09F00D4A0E2ADF
:100ECA000DC0F6FF0EC0F7FFF86A050EF76403D0EF
:100EDA000800F55005D0F6CFE1FFF7CFE2FFE75063
:100EEA000009D8A47BEF07F07DEF07F051EF07F078
:100EFA0012008168000E026E050E016ECCEC06F03F
:100F0A00B50E816E000E026E050E016ECCEC06F077
:100F1A00950E816E000E026E050E016ECCEC06F087
:100F2A00850E816E000E026E050E016ECCEC06F087
:100F3A00840E816E000E026E000E016ECCEC06F07D
:100F4A00800E816EAAEC07F0120026EC09F0000E62
:100F5A00ABEC08F0010E0C6E010E75EC06F04F0EAC
:100F6A000D6E0D50D8A4060E0E6E4FEC07F0010E52
:100F7A000C6E020E75EC06F0940E0D6E0D50D8A490
:100F8A00060E0E6E4FEC07F0000E026E030E016E97
:100F9A00CCEC06F01200EF0E816E000E026E050E0A
:100FAA00016ECCEC06F0A50E816E000E026E0A0EE2
:100FBA00016ECCEC06F0850E816E000E026E060EF6
:100FCA00016ECCEC06F0840E816E000E026E000EED
:100FDA00016ECCEC06F0800E816EAAEC07F01200CE
:100FEA00000EABEC08F0010E0C6E010E75EC06F06B
:100FFA00320E0D6E0D50D8A4060E0E6E4FEC07F091
:10100A00010E0C6E020E75EC06F05D0E0D6E0D50A3
:10101A00D8A4060E0E6E4FEC07F0000E026E080EF4
:10102A00016ECCEC06F01200000EABEC08F0010EDB
:10103A000C6E010E75EC06F0120E0D6E0D50D8A452
:10104A00060E0E6E4FEC07F0010E0C6E020E75ECDA
:10105A0006F0010E0D6E0D50D8A4060E0E6E4FEC62
:10106A0007F01200B50E816E000E026E0F0E016EB1
:10107A00CCEC06F0850E816E000E026E050E016E36
:10108A00CCEC06F0850E816E000E026E000E016E2B
:10109A00CCEC06F0800E816EAAEC07F01200950ED9
:1010AA00816E000E026E140E016ECCEC06F08A0EF2
:1010BA00816E000E026E010E016ECCEC06F0880EF7
:1010CA00816E000E026E000E016ECCEC06F0800EF0
:1010DA00816EAAEC07F01200CA0E816E000E026E33
:1010EA000A0E016ECCEC06F08A0E816E000E026EBC
:1010FA000D0E016ECCEC06F0880E816E000E026EAB
:10110A00000E016ECCEC06F0800E816EAAEC07F0A0
:10111A001200CA0E816E000E026E050E016ECCEC34
:10112A0006F08A0E816E000E026E080E016ECCEC7D
:10113A0006F0880E816E000E026E000E016ECCEC77
:10114A0006F0800E816EAAEC07F01200116E20EEF6
:10115A003BF010EE0CF0040EDBCFE3FFE806FCE2F6
:10116A00000E046E000E036E11500C0FD96EDA6A6F
:10117A00DF50056E000E076E280E066E000E55EC47
:10118A0003F0120001C004F0022A0204036E03C035
:10119A00F6FF060EF76E042A0404D96EDA6A08000E
:1011AA00F5CFDFFFDF50D8A4DDEF08F0DFEF08F05E
:1011BA00C9EF08F01200680EF66E120EF76E000EF6
:1011CA00F86E00EE35F010EE0FF00900F5CFEEFFE5
:1011DA00E550E150FAE1000EF86E00016DEF04F0FF
:1011EA0092688068000E936E000E956E000E836EF4
:1011FA000F0E0C6E060E0D6E280E36EC05F094805E
:10120A0082901200040EE82EFED70106D8A002062C
:10121A0001500210D8A414EF09F016EF09F007EFF5
:10122A0009F012000C6E000E046E000E036E0CC064
:10123A0005F0000E076E2D0E066E010E55EC03F03A
:10124A001200000E046E000E036E010E056E070EEC
:10125A00076ED00E066E000E55EC03F01200030264
:0D126A00000000000C080F0E0D1C181410E1
:020000040030CA
:0E000000FF071F1EFF8385FF0FC00FE00F409C
:00000001FF
