:04000000DAEF08F03B
:10060000006573636F6C6861206120626562696474
:100610006100436F6C6F717565206F20636F706F41
:100620002065004361666520636F6D204C656974C9
:100630006500456D206171756563696D656E746FE8
:1006400000507265706172616E646F2E2E2E0042D2
:1006500065626964612070726F6E746100416775D4
:10066000617264652E2E2E0043686F636F6C65693E
:1006700074650043616665204C6F6E676F0043616F
:100680007070756363696E6F0043616665204375C2
:1006900072746F0053697276612D7365210043682F
:0906A0006F636F6C61746500006A
:1006AA000A6E95949598959A959C959E9592959093
:1006BA000AB002D0839001D0838003B002D0839223
:1006CA0001D0838203500410D8A46EEF03F070EFB8
:1006DA0003F0EBEF03F0086A05AE01D0082A0846DA
:1006EA00084683500818FB0B0818836E05C008F0EB
:1006FA00060E096ED8900832092E7FEF03F0083AE9
:10070A0083500818EF0B0818836E05C008F0050E11
:10071A00096ED8900832092E8EEF03F0083A08467F
:10072A0083500818DF0B0818836E05C008F0083AD2
:10073A000F0E0816083A0846084683500818BF0BD9
:10074A000818836E838E000E026E020E016E01EC93
:10075A0009F0839E05C008F0D8900832D890083274
:10076A00D89008320846084683500818FB0B081828
:10077A00836E05C008F0D8900832D8900832083A3B
:10078A0083500818EF0B0818836E05C008F0D8903C
:10079A000832083A084683500818DF0B0818836E97
:1007AA0005B002D0839C01D0838C838E000E026E2A
:1007BA00020E016E01EC09F0839E06C001F007C02B
:1007CA0002F001EC09F0000E6CEF04F095849588B4
:1007DA00958A958C838E000E026E020E016E01ECD4
:1007EA0009F0000E83B4010E0B6E83B8FFEF03F01D
:1007FA0003EF04F0086A082A04EF04F0086A0B50B1
:10080A000B2408100B6E83BA0DEF04F011EF04F0FD
:10081A00086A082A12EF04F0086A0B500B24081021
:10082A000B6E83BC1BEF04F01FEF04F0086A082A62
:10083A0020EF04F0086A0B500B2408100B6E839EFD
:10084A00838E000E026E020E016E01EC09F083B473
:10085A0031EF04F035EF04F0086A082A36EF04F0A5
:10086A00086A0B500B2408100B6E83B83FEF04F094
:10087A0043EF04F0086A082A44EF04F0086A0B50B0
:10088A000B2408100B6E83BA4DEF04F051EF04F0FD
:10089A00086A082A52EF04F0086A0B500B24081061
:1008AA000B6E83BC5BEF04F05FEF04F0086A082A62
:1008BA0060EF04F0086A0B500B2408100B6E839E3D
:1008CA0006C001F007C002F001EC09F00B5012005B
:1008DA000F6E20EE33F010EE10F0050EDBCFE3FFC3
:1008EA00E806FCE20FC012F00CC013F00DC014F0C1
:1008FA0095949598959A959C959E959295908390A6
:10090A008392839E4E0E026E200E016E01EC09F058
:10091A00000E166E10C00EF0D8900E32D8900E321D
:10092A00D8900E320E460E4683500E18FB0B0E1848
:10093A00836E10C00EF0D8900E32D8900E320E3A56
:10094A0083500E18EF0B0E18836E10C00EF0D8905D
:10095A000E320E3A0E4683500E18DF0B0E18836EB7
:10096A0010B002D0839C01D0838C838E000E026E5D
:10097A00020E016E01EC09F0839E130E026E880EC0
:10098A00016E01EC09F0162A020E1664CFEF04F08C
:10099A00D1EF04F08FEF04F011C00EF0D8900E32B0
:1009AA00D8900E32D8900E320E460E4683500E184C
:1009BA00FB0B0E18836E11C00EF0D8900E32D89031
:1009CA000E320E3A83500E18EF0B0E18836E11C0BA
:1009DA000EF0D8900E320E3A0E4683500E18DF0BE8
:1009EA000E18836E11B002D0839C01D0838C838E43
:1009FA00000E026E020E016E01EC09F0839E000EDB
:100A0A00026E280E016E01EC09F0000E046E000E53
:100A1A00036E12C005F0000E076E280E066E000E59
:100A2A0055EC03F0000E046E000E036E13C005F0C1
:100A3A00000E076E280E066E000E55EC03F0000E2F
:100A4A00046E000E036E14C005F0000E076E280E29
:100A5A00066E000E55EC03F020EC09F01200EFECE4
:100A6A0008F0EFEC07F0000E326E000E316E818E48
:100A7A0013EC08F082A044EF05F046EF05F03CEFD6
:100A8A0005F080B04BEF05F04DEF05F062EF05F091
:100A9A0031503210D8A454EF05F056EF05F062EF4A
:100AAA0005F0000E306E000E2F6E000E026E640E00
:100ABA00016EC6EC06F0E6EF05F080B267EF05F0CE
:100ACA0069EF05F078EF05F031503210D8A470EFD5
:100ADA0005F072EF05F078EF05F0000E306E010EAA
:100AEA002F6E5AEF05F080B47DEF05F07FEF05F029
:100AFA008EEF05F031503210D8A486EF05F088EF5A
:100B0A0005F08EEF05F0000E306E020E2F6E5AEFD2
:100B1A0005F080B693EF05F095EF05F0A4EF05F028
:100B2A0031503210D8A49CEF05F09EEF05F0A4EFE7
:100B3A0005F0000E306E030E2F6E5AEF05F080B8E6
:100B4A00A9EF05F0ABEF05F0BAEF05F0315032101E
:100B5A00D8A4B2EF05F0B4EF05F0BAEF05F0000E35
:100B6A00306E040E2F6E5AEF05F080BABFEF05F013
:100B7A00C1EF05F0D0EF05F031503210D8A4C8EF1C
:100B8A0005F0CAEF05F0D0EF05F0000E306E050E45
:100B9A002F6E5AEF05F080BCD5EF05F0D7EF05F0C0
:100BAA003CEF05F031503210D8A4DEEF05F0E0EF4B
:100BBA0005F03CEF05F0000E306E060E2F6E5AEF70
:100BCA0005F02FC012F030C013F0F7EC05F02FC07B
:100BDA0012F030C013F008EC07F0829038EF05F0FD
:100BEA0000EF00F02CEF06F0160E016E890E026E71
:100BFA00C1EC08F052EF06F0160E016E730E026E8B
:100C0A00C1EC08F052EF06F0160E016E230E026ECA
:100C1A00C1EC08F052EF06F0160E016E7E0E026E5F
:100C2A00C1EC08F052EF06F0160E016E9E0E026E2F
:100C3A00C1EC08F052EF06F0160E016E680E026E55
:100C4A00C1EC08F052EF06F0FF0052EF06F012C0B6
:100C5A0014F013C015F01550000AD8B437EF06F097
:100C6A0029EF06F01450000AD8B4F9EF05F0010A8A
:100C7A00D8B401EF06F0030AD8B409EF06F0010A66
:100C8A00D8B411EF06F0070AD8B419EF06F0010A32
:100C9A00D8B421EF06F029EF06F020EC09F0000E97
:100CAA00A5EC08F0010E0C6E010E6FEC06F0160EA4
:100CBA000D6E0E6A49EC07F0010E0C6E020E6FEC17
:100CCA0006F0410E0D6E0D50D8A4060E0E6E49ECBC
:100CDA0007F012000D6EB2EF06F0000E046E000E61
:100CEA00036E0C507F0F056E000E076E280E066EFF
:100CFA00000E55EC03F0C5EF06F0000E046E000E70
:100D0A00036E0C50BF0F056E000E076E280E066E9E
:100D1A00000E55EC03F0C5EF06F0000E046E000E4F
:100D2A00036E0C50930F056E000E076E280E066EAA
:100D3A00000E55EC03F0C5EF06F0000E046E000E2F
:100D4A00036E0C50D30F056E000E076E280E066E4A
:100D5A00000E55EC03F0C5EF06F00D50010AD8B4A9
:100D6A0072EF06F0030AD8B482EF06F0010AD8B48B
:100D7A0092EF06F0070AD8B4A2EF06F0C5EF06F024
:100D8A001200000ECD6ECD92300ECD12000E046E02
:100D9A00010E036EFA0E0A6E240E096E000E066E1E
:100DAA00000E056EFCEF06F0000E086E000E076ED0
:100DBA00EFEF06F00A50CF6E09C0CEFF9E90CD80AD
:100DCA009EA0EAEF06F0ECEF06F0E5EF06F0CD9014
:100DDA00074A082A0350075C04500858D8A0F8EFBD
:100DEA0006F0FAEF06F0DFEF06F0054A062A015090
:100DFA00055C02500658D8A005EF07F007EF07F088
:100E0A00D9EF06F0120022EF07F088EC08F048EF5D
:100E1A0007F06BEC08F048EF07F0CAEC07F048EF70
:100E2A0007F078EC07F048EF07F04EEC08F048EFCF
:100E3A0007F031EC08F048EF07F012C014F013C0C5
:100E4A0015F01550000AD8B42DEF07F048EF07F057
:100E5A001450000AD8B40AEF07F0010AD8B40EEF0A
:100E6A0007F0030AD8B412EF07F0010AD8B416EF54
:100E7A0007F0070AD8B41AEF07F0010AD8B41EEF30
:100E8A0007F048EF07F012005FEF07F00DC0F6FF1A
:100E9A000EC0F7FFF86A050EF76403D00800F55094
:100EAA0005D0F6CFE1FFF7CFE2FFE75011EC09F0EA
:100EBA000D4A0E2A0DC0F6FF0EC0F7FFF86A050E9E
:100ECA00F76403D00800F55005D0F6CFE1FFF7CF5D
:100EDA00E2FFE7500009D8A475EF07F077EF07F0B3
:100EEA004BEF07F012008168130E026E880E016E36
:100EFA00C6EC06F0B50E816E130E026E880E016EF8
:100F0A00C6EC06F0950E816E130E026E880E016E07
:100F1A00C6EC06F0850E816E130E026E880E016E07
:100F2A00C6EC06F0840E816E000E026EFA0E016E99
:100F3A00C6EC06F0800E816EA4EC07F0120020ECDD
:100F4A0009F0000EA5EC08F0010E0C6E010E6FEC14
:100F5A0006F04F0E0D6E0D50D8A4060E0E6E49EC1B
:100F6A0007F0010E0C6E020E6FEC06F0940E0D6E79
:100F7A000D50D8A4060E0E6E49EC07F00B0E026E49
:100F8A00B80E016EC6EC06F01200EF0E816E130E5B
:100F9A00026E880E016EC6EC06F0A50E816E270E53
:100FAA00026E100E016EC6EC06F0850E816E170EEB
:100FBA00026E700E016EC6EC06F0840E816E000E93
:100FCA00026EFA0E016EC6EC06F0800E816EA4EC7B
:100FDA0007F01200000EA5EC08F0010E0C6E010ECF
:100FEA006FEC06F0320E0D6E0D50D8A4060E0E6E82
:100FFA0049EC07F0010E0C6E020E6FEC06F05D0E66
:10100A000D6E0D50D8A4060E0E6E49EC07F01F0E99
:10101A00026E400E016EC6EC06F01200000EA5EC40
:10102A0008F0010E0C6E010E6FEC06F0120E0D6E3A
:10103A000D50D8A4060E0E6E49EC07F0010E0C6E88
:10104A00020E6FEC06F0010E0D6E0D50D8A4060EBE
:10105A000E6E49EC07F01200B50E816E3A0E026E62
:10106A00980E016EC6EC06F0850E816E130E026EA6
:10107A00880E016EC6EC06F0850E816E000E026EB9
:10108A00FA0E016EC6EC06F0800E816EA4EC07F033
:10109A001200950E816E4E0E026E200E016EC6EC87
:1010AA0006F0850E816E030E026EE80E016EC6EC26
:1010BA0006F0840E816E000E026EFA0E016EC6EC08
:1010CA0006F0800E816EA4EC07F01200CA0E816E43
:1010DA00030E026EE80E016EC6EC06F08A0E816EF1
:1010EA00320E026EC80E016EC6EC06F0880E816ED4
:1010FA00000E026EFA0E016EC6EC06F0800E816ECC
:10110A00A4EC07F01200CA0E816E130E026E880E4E
:10111A00016EC6EC06F08A0E816E1F0E026E400E3C
:10112A00016EC6EC06F0880E816E000E026EFA0E93
:10113A00016EC6EC06F0800E816EA4EC07F0120078
:10114A00116E20EE39F010EE0CF0040EDBCFE3FF47
:10115A00E806FCE2000E046E000E036E11500C0F3E
:10116A00D96EDA6ADF50056E000E076E280E066E1B
:10117A00000E55EC03F0120001C004F0022A02042A
:10118A00036E03C0F6FF060EF76E042A0404D96E36
:10119A00DA6A0800F5CFDFFFDF50D8A4D7EF08F0EE
:1011AA00D9EF08F0C3EF08F012005C0EF66E120ECB
:1011BA00F76E000EF86E00EE33F010EE0FF0090035
:1011CA00F5CFEEFFE550E150FAE1000EF86E0001AE
:1011DA0034EF05F092688068000E936E000E956EEB
:1011EA00000E836E0F0E0C6E060E0D6E280E6DEC41
:1011FA0004F0948082901200040EE82EFED70106B5
:10120A00D8A0020601500210D8A40EEF09F010EF80
:10121A0009F001EF09F012000C6E000E046E000EC8
:10122A00036E0CC005F0000E076E2D0E066E010E41
:10123A0055EC03F01200000E046E000E036E010E50
:10124A00056E070E076ED00E066E000E55EC03F003
:10125A0012000302000000000C080F0E0D1C1814E7
:01126A001073
:020000040030CA
:0E000000FF071F1EFF8385FF0FC00FE00F409C
:00000001FF
