:0400000019EF08F0FC
:10060000006573636F6C6861206120626562696474
:100610006100436F6C6F717565206F20636F706F41
:100620002065004361666520636F6D204C656974C9
:100630006500456D206171756563696D656E746FE8
:1006400000507265706172616E646F2E2E2E0042D2
:1006500065626964612070726F6E746100416775D4
:10066000617264652E2E2E0043686F636F6C65693E
:1006700074650043616665204C6F6E676F0043616F
:100680007070756363696E6F0043616665204375C2
:1006900072746F0053697276612D7365210043682F
:0906A0006F636F6C61746500006A
:1006AA000A6E95949598959A959C959E9592959093
:1006BA000AB002D0839001D0838003B002D0839223
:1006CA0001D0838203500410D8A478D0086A05AEFA
:1006DA0001D0082A0846084683500818FB0B081858
:1006EA00836E05C008F0060E096ED8900832092EEE
:1006FA00FCD7083A83500818EF0B0818836E05C018
:10070A0008F0050E096ED8900832092EFCD7083A6F
:10071A00084683500818DF0B0818836E05C008F0D6
:10072A00083A0F0E0816083A084608468350081871
:10073A00BF0B0818836E838E000E026E020E016EC6
:10074A005EEC08F0839E05C008F0D8900832D89075
:10075A000832D89008320846084683500818FB0B1E
:10076A000818836E05C008F0D8900832D89008326D
:10077A00083A83500818EF0B0818836E05C008F072
:10078A00D8900832083A084683500818DF0B081830
:10079A00836E05B002D0839C01D0838C838E000EB9
:1007AA00026E020E016E5EEC08F0839E06C001F036
:1007BA0007C002F05EEC08F0000E120095849588DE
:1007CA00958A958C838E000E026E020E016E5EEC87
:1007DA0008F0000E83B4010E0B6E83A803D0086ADA
:1007EA00082A01D0086A0B500B2408100B6E83AA42
:1007FA0003D0086A082A01D0086A0B500B24081093
:10080A000B6E83AC03D0086A082A01D0086A0B5021
:10081A000B2408100B6E839E838E000E026E020E4E
:10082A00016E5EEC08F083A403D0086A082A01D09E
:10083A00086A0B500B2408100B6E83A803D0086AB1
:10084A00082A01D0086A0B500B2408100B6E83AAE1
:10085A0003D0086A082A01D0086A0B500B24081032
:10086A000B6E83AC03D0086A082A01D0086A0B50C1
:10087A000B2408100B6E839E06C001F007C002F01D
:10088A005EEC08F00B5012000F6E20EE33F010EE03
:10089A0010F0050EDBCFE3FFE806FCE20FC012F012
:1008AA000CC013F00DC014F095949598959A959CE8
:1008BA00959E9592959083908392839E4E0E026E9A
:1008CA00200E016E5EEC08F0000E166E10C00EF0DF
:1008DA00D8900E32D8900E32D8900E320E460E466E
:1008EA0083500E18FB0B0E18836E10C00EF0D890B2
:1008FA000E32D8900E320E3A83500E18EF0B0E18A5
:10090A00836E10C00EF0D8900E320E3A0E46835007
:10091A000E18DF0B0E18836E10B002D0839C01D024
:10092A00838C838E000E026E020E016E5EEC08F05E
:10093A00839E130E026E880E016E5EEC08F0162A74
:10094A00020E1664C3D711C00EF0D8900E32D8909A
:10095A000E32D8900E320E460E4683500E18FB0BFE
:10096A000E18836E11C00EF0D8900E32D8900E3247
:10097A000E3A83500E18EF0B0E18836E11C00EF04C
:10098A00D8900E320E3A0E4683500E18DF0B0E1810
:10099A00836E11B002D0839C01D0838C838E000EAB
:1009AA00026E020E016E5EEC08F0839E000E026E6D
:1009BA00280E016E5EEC08F0000E046E000E036E47
:1009CA0012C005F0000E076E280E066E000E55ECDA
:1009DA0003F0000E046E000E036E13C005F0000E45
:1009EA00076E280E066E000E55EC03F0000E046E1C
:1009FA00000E036E14C005F0000E076E280E066E78
:100A0A00000E55EC03F050EC08F0120003EC08F06D
:100A1A0031EC07F0000E326E000E316E2F6830682E
:100A2A00818E55EC07F082B052D0FAD780B013D03D
:100A3A0031503210D8A40FD0000E306E000E2F6E37
:100A4A00000E326E010E316E000E026E640E016EE1
:100A5A0031EC06F03CD080B208D031503210D8A424
:100A6A0004D0000E306E010EEAD780B408D031509F
:100A7A003210D8A404D0000E306E020EE0D780B631
:100A8A0008D031503210D8A404D0000E306E030EB4
:100A9A00D6D780B808D031503210D8A404D0000E6E
:100AAA00306E040ECCD780BA08D031503210D8A498
:100ABA0004D0000E306E050EC2D780BC08D031506B
:100ACA003210D8A404D0000E306E060EB8D72F28E4
:100ADA0003E13028D8B4AAD72FC012F030C013F0DF
:100AEA007FEC05F02FC012F030C013F062EC06F074
:100AFA00829090D72CD0160E016E890E026E2EECC3
:100B0A0008F041D0160E016E730E026E2EEC08F03C
:100B1A003AD0160E016E230E026E2EEC08F033D078
:100B2A00160E016E7E0E026E2EEC08F02CD0160EFA
:100B3A00016E9E0E026E2EEC08F025D0160E016E86
:100B4A00680E026E2EEC08F01ED0FF001CD012C0F8
:100B5A0014F013C015F01550000AD8A4F6D7145093
:100B6A00000AD8B4C8D7010AD8B4CCD7030AD8B473
:100B7A00D0D7010AD8B4D4D7070AD8B4D8D7010A2B
:100B8A00D8B4DCD7E2D750EC08F0000EE7EC07F057
:100B9A00010E0C6E010EE5EC05F0160E0D6E0E6AD6
:100BAA00BDEC06F0010E0C6E020EE5EC05F0410EEE
:100BBA000D6E0D50D8A4060E0E6EBDEC06F0120096
:100BCA000D6E3CD0000E046E000E036E0C507F0FAB
:100BDA00056E000E076E280E066E000E55EC03F029
:100BEA001200000E046E000E036E0C50BF0F056E4D
:100BFA00000E076E280E066E000E55EC03F012006A
:100C0A00000E046E000E036E0C50930F056E000E5C
:100C1A00076E280E066E000E55EC03F01200000E49
:100C2A00046E000E036E0C50D30F056E000E076E95
:100C3A00280E066E000E55EC03F012000D50010A44
:100C4A00D8B4C0D7030AD8B4CCD7010AD8B4D8D7F5
:100C5A00070AD8A41200E3D7000ECD6ECD92300E4B
:100C6A00CD12000E046E010E036EFA0E0A6E240EE9
:100C7A00096E000E066E000E056E18D0000E086E84
:100C8A00000E076E0BD00AC0CFFF09C0CEFF9E90A0
:100C9A00CD809EA0FED7CD90074A082A0350075C54
:100CAA0004500858D8A0EFD7054A062A0150055C17
:100CBA0002500658D8B01200E1D712D0CAEC07F099
:100CCA001200ADEC07F012000CEC07F0120091ECE8
:100CDA0006F0120090EC07F0120073EC07F0120015
:100CEA0012C014F013C015F01550000AD8A412004F
:100CFA001450000AD8B4E2D7010AD8B4E2D7030ADA
:100D0A00D8B4E2D7010AD8B4E2D7070AD8B4E2D7EE
:100D1A00010AD8A41200E1D78168130E026E880E68
:100D2A00016E31EC06F0B50E816E130E026E880E5E
:100D3A00016E31EC06F0950E816E130E026E880E6E
:100D4A00016E31EC06F0850E816E130E026E880E6E
:100D5A00016E31EC06F0840E816E000E026EFA0E00
:100D6A00016E31EC06F0800E816EE6EC06F01200A0
:100D7A0014D00DC0F6FF0EC0F7FFF86A050EF7642F
:100D8A0003D00800F55005D0F6CFE1FFF7CFE2FF18
:100D9A00E75041EC08F00D4A0E2A0DC0F6FF0EC0CE
:100DAA00F7FFF86A050EF76403D00800F55005D07E
:100DBA00F6CFE1FFF7CFE2FFE7500009D8B41200FF
:100DCA00D8D750EC08F0000EE7EC07F0010E0C6ED5
:100DDA00010EE5EC05F04F0E0D6E0D50D8A4060E6F
:100DEA000E6EBDEC06F0010E0C6E020EE5EC05F07F
:100DFA00940E0D6E0D50D8A4060E0E6EBDEC06F0C4
:100E0A000B0E026EB80E016E31EC06F01200EF0EF8
:100E1A00816E130E026E880E016E31EC06F0A50E7D
:100E2A00816E270E026E100E016E31EC06F0850EF1
:100E3A00816E170E026E700E016E31EC06F0840E92
:100E4A00816E000E026EFA0E016E31EC06F0800E13
:100E5A00816EE6EC06F01200000EE7EC07F0010ED8
:100E6A000C6E010EE5EC05F0320E0D6E0D50D8A495
:100E7A00060E0E6EBDEC06F0010E0C6E020EE5ECCF
:100E8A0005F05D0E0D6E0D50D8A4060E0E6EBDEC6B
:100E9A0006F01F0E026E400E016E31EC06F01200D3
:100EAA00000EE7EC07F0010E0C6E010EE5EC05F002
:100EBA00120E0D6E0D50D8A4060E0E6EBDEC06F085
:100ECA00010E0C6E020EE5EC05F0010E0D6E0D50D2
:100EDA00D8A4060E0E6EBDEC06F01200B50E816E99
:100EEA003A0E026E980E016E31EC06F0850E816E96
:100EFA00130E026E880E016E31EC06F0840E816EBE
:100F0A00000E026EFA0E016E31EC06F0800E816E52
:100F1A00E6EC06F01200950E816E4E0E026E200E61
:100F2A00016E31EC06F0850E816E030E026EE80E3C
:100F3A00016E31EC06F0840E816E000E026EFA0E1E
:100F4A00016E31EC06F0800E816EE6EC06F01200BE
:100F5A00CA0E816E270E026E100E016E31EC06F07B
:100F6A008A0E816E320E026EC80E016E31EC06F0E8
:100F7A00880E816E000E026EFA0E016E31EC06F0DA
:100F8A00800E816EE6EC06F01200CA0E816E130E18
:100F9A00026E880E016E31EC06F08A0E816E1F0E0B
:100FAA00026E400E016E31EC06F0880E816E000E64
:100FBA00026EFA0E016E31EC06F0800E816EE6ECDE
:100FCA0006F01200116E20EE39F010EE0CF0040E4D
:100FDA00DBCFE3FFE806FCE2000E046E000E036EB0
:100FEA0011500C0FD96EDA6ADF50056E000E076ECB
:100FFA00280E066E000E55EC03F01200000E936EDA
:10100A00000E8A6E000E956E000E836E0F0E0C6E29
:10101A00060E0D6E280E49EC04F0948082909268B8
:10102A000F0EC16E80681200D20EF66E100EF76EA9
:10103A00000EF86E00EE33F010EE0FF00900F5CF57
:10104A00EEFFE550E150FAE1000EF86E00010BEFF9
:10105A0005F001C003F002D0032A022A02C0F6FFFB
:10106A00060EF76E0350D96EDA6A0800F5CFDFFF75
:10107A00DF50D8B41200F0D70C6E000E046E000ECA
:10108A00036E0CC005F0000E076E2D0E066E010EE3
:10109A0055EC03F01200000E046E000E036E010EF2
:1010AA00056E070E076ED00E066E000E55EC03F0A5
:1010BA001200040EE82EFED70106D8A0020601503F
:1010CA000210D8B41200F5D70302000000000C0881
:0710DA000F0E0D1C1814108D
:020000040030CA
:0E000000FF071F1EFF8385FF0FC00FE00F409C
:00000001FF
