:04000000D1EF08F044
:10060000006573636F6C6861206120626562696474
:100610006100436F6C6F717565206F20636F706F41
:100620002065004361666520636F6D204C656974C9
:100630006500456D206171756563696D656E746FE8
:1006400000507265706172616E646F2E2E2E0042D2
:1006500065626964612070726F6E746100416775D4
:10066000617264652E2E2E0043686F636F6C65693E
:1006700074650043616665204C6F6E676F0043616F
:100680007070756363696E6F0043616665204375C2
:1006900072746F0053697276612D7365210043682F
:0906A0006F636F6C61746500006A
:1006AA000A6E95949598959A959C959E9592959093
:1006BA000AB002D0839001D0838003B002D0839223
:1006CA0001D0838203500410D8A46EEF03F070EFB8
:1006DA0003F0EBEF03F0086A05AE01D0082A0846DA
:1006EA00084683500818FB0B0818836E05C008F0EB
:1006FA00060E096ED8900832092E7FEF03F0083AE9
:10070A0083500818EF0B0818836E05C008F0050E11
:10071A00096ED8900832092E8EEF03F0083A08467F
:10072A0083500818DF0B0818836E05C008F0083AD2
:10073A000F0E0816083A0846084683500818BF0BD9
:10074A000818836E838E000E026E020E016E10EC84
:10075A0009F0839E05C008F0D8900832D890083274
:10076A00D89008320846084683500818FB0B081828
:10077A00836E05C008F0D8900832D8900832083A3B
:10078A0083500818EF0B0818836E05C008F0D8903C
:10079A000832083A084683500818DF0B0818836E97
:1007AA0005B002D0839C01D0838C838E000E026E2A
:1007BA00020E016E10EC09F0839E06C001F007C01C
:1007CA0002F010EC09F0000E6CEF04F095849588A5
:1007DA00958A958C838E000E026E020E016E10ECC5
:1007EA0009F0000E83B4010E0B6E83B8FFEF03F01D
:1007FA0003EF04F0086A082A04EF04F0086A0B50B1
:10080A000B2408100B6E83BA0DEF04F011EF04F0FD
:10081A00086A082A12EF04F0086A0B500B24081021
:10082A000B6E83BC1BEF04F01FEF04F0086A082A62
:10083A0020EF04F0086A0B500B2408100B6E839EFD
:10084A00838E000E026E020E016E10EC09F083B464
:10085A0031EF04F035EF04F0086A082A36EF04F0A5
:10086A00086A0B500B2408100B6E83B83FEF04F094
:10087A0043EF04F0086A082A44EF04F0086A0B50B0
:10088A000B2408100B6E83BA4DEF04F051EF04F0FD
:10089A00086A082A52EF04F0086A0B500B24081061
:1008AA000B6E83BC5BEF04F05FEF04F0086A082A62
:1008BA0060EF04F0086A0B500B2408100B6E839E3D
:1008CA0006C001F007C002F010EC09F00B5012004C
:1008DA00BBEC08F00CEC08F0000E326E000E316E24
:1008EA002F683068818E30EC08F082A07FEF04F028
:1008FA0081EF04F077EF04F080B086EF04F088EF20
:10090A0004F0A1EF04F031503210D8A48FEF04F0B4
:10091A0091EF04F0A1EF04F0000E306E000E2F6E7E
:10092A00000E326E010E316E000E026E640E016E02
:10093A00E3EC06F023EF05F080B2A6EF04F0A8EF8F
:10094A0004F0BBEF04F031503210D8A4AFEF04F03A
:10095A00B1EF04F0BBEF04F0000E306E010E2F6E03
:10096A00000E326E010E316E99EF04F080B4C0EFC2
:10097A0004F0C2EF04F0D5EF04F031503210D8A4DD
:10098A00C9EF04F0CBEF04F0D5EF04F0000E306E9F
:10099A00020E2F6E000E326E010E316E99EF04F0C8
:1009AA0080B6DAEF04F0DCEF04F0EFEF04F0315038
:1009BA003210D8A4E3EF04F0E5EF04F0EFEF04F00F
:1009CA00000E306E030E2F6E000E326E010E316E67
:1009DA0099EF04F080B8F4EF04F0F6EF04F009EFB1
:1009EA0005F031503210D8A4FDEF04F0FFEF04F007
:1009FA0009EF05F0000E306E040E2F6E000E326EF7
:100A0A00010E316E99EF04F080BA0EEF05F010EF87
:100A1A0005F023EF05F031503210D8A417EF05F096
:100A2A0019EF05F023EF05F0000E306E050E2F6E5C
:100A3A00000E326E010E316E99EF04F0310432105D
:100A4A00D8A42AEF05F02CEF05F077EF04F02F2851
:100A5A0008E13028D8B434EF05F036EF05F077EF27
:100A6A0004F02FC012F030C013F017EC06F02FC0BC
:100A7A000BF030C00CF025EC07F0C1EC07F082B0A7
:100A8A0049EF05F04BEF05F044EF05F0829071EF66
:100A9A0004F000EF00F00F6E20EE33F010EE10F0CD
:100AAA00050EDBCFE3FFE806FCE20FC012F00CC034
:100ABA0013F00DC014F095949598959A959C959E6F
:100ACA009592959083908392839E4E0E026E200E8D
:100ADA00016E10EC09F0000E166E10C00EF0D890E0
:100AEA000E32D8900E32D8900E320E460E468350F1
:100AFA000E18FB0B0E18836E10C00EF0D8900E3233
:100B0A00D8900E320E3A83500E18EF0B0E18836EE1
:100B1A0010C00EF0D8900E320E3A0E4683500E18C0
:100B2A00DF0B0E18836E10B002D0839C01D0838C29
:100B3A00838E000E026E020E016E10EC09F0839E87
:100B4A00130E026E880E016E10EC09F0162A020EC0
:100B5A001664B2EF05F0B4EF05F072EF05F011C0BC
:100B6A000EF0D8900E32D8900E32D8900E320E4631
:100B7A000E4683500E18FB0B0E18836E11C00EF032
:100B8A00D8900E32D8900E320E3A83500E18EF0BD0
:100B9A000E18836E11C00EF0D8900E320E3A0E4621
:100BAA0083500E18DF0B0E18836E11B002D0839C8F
:100BBA0001D0838C838E000E026E020E016E10EC41
:100BCA0009F0839E000E026E280E016E10EC09F0E9
:100BDA00000E046E000E036E12C005F0000E076EC2
:100BEA00280E066E000E55EC03F0000E046E000E81
:100BFA00036E13C005F0000E076E280E066E000E77
:100C0A0055EC03F0000E046E000E036E14C005F0DE
:100C1A00000E076E280E066E000E55EC03F02FEC40
:100C2A0009F0120049EF06F0160E016E890E026EE7
:100C3A00A2EC08F06FEF06F0160E016E730E026E4C
:100C4A00A2EC08F06FEF06F0160E016E230E026E8C
:100C5A00A2EC08F06FEF06F0160E016E7E0E026E21
:100C6A00A2EC08F06FEF06F0160E016E9E0E026EF1
:100C7A00A2EC08F06FEF06F0160E016E680E026E17
:100C8A00A2EC08F06FEF06F012C014F013C015F0D2
:100C9A001550000AD8B454EF06F06FEF06F014505E
:100CAA00000AD8B419EF06F0010AD8B421EF06F009
:100CBA00030AD8B429EF06F0010AD8B431EF06F0D6
:100CCA00070AD8B439EF06F0010AD8B441EF06F0A2
:100CDA006FEF06F02FEC09F0000E6BEC08F0010E36
:100CEA000C6E010E8CEC06F0160E0D6E0E6A66EC9A
:100CFA0007F0010E0C6E020E8CEC06F0410E0D6E22
:100D0A000D50D8A4060E0E6E66EC07F012000D6E9A
:100D1A00CFEF06F0000E046E000E036E0C507F0F2C
:100D2A00056E000E076E280E066E000E55EC03F0D7
:100D3A00E2EF06F0000E046E000E036E0C50BF0FB9
:100D4A00056E000E076E280E066E000E55EC03F0B7
:100D5A00E2EF06F0000E046E000E036E0C50930FC5
:100D6A00056E000E076E280E066E000E55EC03F097
:100D7A00E2EF06F0000E046E000E036E0C50D30F65
:100D8A00056E000E076E280E066E000E55EC03F077
:100D9A00E2EF06F00D50010AD8B48FEF06F0030A0D
:100DAA00D8B49FEF06F0010AD8B4AFEF06F0070AED
:100DBA00D8B4BFEF06F0E2EF06F01200000ECD6ED7
:100DCA00CD92300ECD12000E046E010E036EFA0E95
:100DDA000A6E240E096E000E066E000E056E19EFDD
:100DEA0007F0000E086E000E076E0CEF07F00A50AF
:100DFA00CF6E09C0CEFF9E90CD809EA007EF07F070
:100E0A0009EF07F002EF07F0CD90074A082A0350CE
:100E1A00075C04500858D8A015EF07F017EF07F041
:100E2A00FCEF06F0054A062A0150055C02500658F6
:100E3A00D8A022EF07F024EF07F0F6EF06F0120031
:100E4A003FEF07F0FBEC08F065EF07F0E6EC08F07F
:100E5A0065EF07F0E7EC07F065EF07F095EC07F0B0
:100E6A0065EF07F04EEC08F065EF07F087EC08F045
:100E7A0065EF07F00BC00DF00CC00EF00E50000A23
:100E8A00D8B44AEF07F065EF07F00D50000AD8B45E
:100E9A0027EF07F0010AD8B42BEF07F0030AD8B4FA
:100EAA002FEF07F0010AD8B433EF07F0070AD8B4D6
:100EBA0037EF07F0010AD8B43BEF07F065EF07F008
:100ECA0012007CEF07F00DC0F6FF0EC0F7FFF86ABC
:100EDA00050EF76403D00800F55005D0F6CFE1FF00
:100EEA00F7CFE2FFE75020EC09F00D4A0E2A0DC0B9
:100EFA00F6FF0EC0F7FFF86A050EF76403D0080084
:100F0A00F55005D0F6CFE1FFF7CFE2FFE750000931
:100F1A00D8A492EF07F094EF07F068EF07F01200F9
:100F2A0081680F0E026EA00E016EE3EC06F0BF0E92
:100F3A00816E0B0E026EB80E016EE3EC06F0B50E72
:100F4A00816E030E026EE80E016EE3EC06F0A50E4A
:100F5A00816E0F0E026EA00E016EE3EC06F0850E96
:100F6A00816E070E026ED00E016EE3EC06F0840E5F
:100F7A00816E800E816E12002FEC09F0000E6BEC70
:100F8A0008F0010E0C6E010E8CEC06F04F0E0D6E81
:100F9A000D50D8A4060E0E6E66EC07F0010E0C6E0C
:100FAA00020E8CEC06F0940E0D6E0D50D8A4060EAF
:100FBA000E6E66EC07F00B0E026EB80E016EE3ECD5
:100FCA0006F01200EF0E816E0F0E026EA00E016E79
:100FDA00E3EC06F0AF0E816E0B0E026EB80E016ED8
:100FEA00E3EC06F0A50E816E130E026E880E016EFA
:100FFA00E3EC06F0850E816E0B0E026EB80E016EE2
:10100A00E3EC06F0840E816E800E816E1200000EF3
:10101A006BEC08F0010E0C6E010E8CEC06F0320E31
:10102A000D6E0D50D8A4060E0E6E66EC07F0010E7A
:10103A000C6E020E8CEC06F05D0E0D6E0D50D8A4EF
:10104A00060E0E6E66EC07F01F0E026E400E016E63
:10105A00E3EC06F01200000E6BEC08F0010E0C6EC9
:10106A00010E8CEC06F0120E0D6E0D50D8A4060E71
:10107A000E6E66EC07F0010E0C6E020E8CEC06F09A
:10108A00010E0D6E0D50D8A4060E0E6E66EC07F01A
:10109A001200B50E816E270E026E100E016EE3EC81
:1010AA0006F0950E816E130E026E880E016EE3EC49
:1010BA0006F0850E816E170E026E700E016EE3EC5D
:1010CA0006F0840E816E800E816E1200116E20EE83
:1010DA0039F010EE0CF0040EDBCFE3FFE806FCE279
:1010EA00000E046E000E036E11500C0FD96EDA6AF0
:1010FA00DF50056E000E076E280E066E000E55ECC8
:10110A0003F01200B50E816E3A0E026E980E016E51
:10111A00E3EC06F0850E816E130E026E880E016EE8
:10112A00E3EC06F0840E816E000E026EFA0E016E7A
:10113A00E3EC06F0800E816E120001C004F0022A70
:10114A000204036E03C0F6FF060EF76E042A0404B7
:10115A00D96EDA6A0800F5CFDFFFDF50D8A4B8EFFE
:10116A0008F0BAEF08F0A4EF08F01200000E936E30
:10117A00000E8A6E000E956E000E836E0F0E0C6EB8
:10118A00060E0D6E280E50EC05F09480829092683F
:10119A000F0EC16E806812007A0EF66E120EF76E8E
:1011AA00000EF86E00EE33F010EE0FF00900F5CFE6
:1011BA00EEFFE550E150FAE1000EF86E00016DEF26
:1011CA0004F0CA0E816E4E0E026E200E016EE3EC22
:1011DA0006F08A0E816E050E026EDC0E016EE3ECDD
:1011EA0006F0880E816E800E816E1200CA0E816E24
:1011FA00270E026E100E016EE3EC06F08A0E816E67
:10120A00070E026ED00E016EE3EC06F0880E816EB8
:10121A00800E816E1200040EE82EFED70106D8A0B9
:10122A00020601500210D8A41DEF09F01FEF09F0C1
:10123A0010EF09F012000C6E000E046E000E036E21
:10124A000CC005F0000E076E2D0E066E010E55EC51
:10125A0003F01200000E046E000E036E010E056EFE
:10126A00070E076ED00E066E000E55EC03F0120044
:0F127A000302000000000C080F0E0D1C181410CA
:020000040030CA
:0E000000FF071F1EFF8385FF0FC00FE00F409C
:00000001FF
