:04000000E5EF08F030
:10060000006573636F6C6861206120626562696474
:100610006100436F6C6F717565206F20636F706F41
:100620002065004361666520636F6D204C656974C9
:100630006500456D206171756563696D656E746FE8
:1006400000507265706172616E646F2E2E2E0042D2
:1006500065626964612070726F6E746100416775D4
:10066000617264652E2E2E0043686F636F6C65693E
:1006700074650043616665204C6F6E676F0043616F
:100680007070756363696E6F0043616665204375C2
:1006900072746F0053697276612D7365210043682F
:0906A0006F636F6C61746500006A
:1006AA000A6E95949598959A959C959E9592959093
:1006BA000AB002D0839001D0838003B002D0839223
:1006CA0001D0838203500410D8A46EEF03F070EFB8
:1006DA0003F0EBEF03F0086A05AE01D0082A0846DA
:1006EA00084683500818FB0B0818836E05C008F0EB
:1006FA00060E096ED8900832092E7FEF03F0083AE9
:10070A0083500818EF0B0818836E05C008F0050E11
:10071A00096ED8900832092E8EEF03F0083A08467F
:10072A0083500818DF0B0818836E05C008F0083AD2
:10073A000F0E0816083A0846084683500818BF0BD9
:10074A000818836E838E000E026E020E016E0CEC88
:10075A0009F0839E05C008F0D8900832D890083274
:10076A00D89008320846084683500818FB0B081828
:10077A00836E05C008F0D8900832D8900832083A3B
:10078A0083500818EF0B0818836E05C008F0D8903C
:10079A000832083A084683500818DF0B0818836E97
:1007AA0005B002D0839C01D0838C838E000E026E2A
:1007BA00020E016E0CEC09F0839E06C001F007C020
:1007CA0002F00CEC09F0000E6CEF04F095849588A9
:1007DA00958A958C838E000E026E020E016E0CECC9
:1007EA0009F0000E83B4010E0B6E83B8FFEF03F01D
:1007FA0003EF04F0086A082A04EF04F0086A0B50B1
:10080A000B2408100B6E83BA0DEF04F011EF04F0FD
:10081A00086A082A12EF04F0086A0B500B24081021
:10082A000B6E83BC1BEF04F01FEF04F0086A082A62
:10083A0020EF04F0086A0B500B2408100B6E839EFD
:10084A00838E000E026E020E016E0CEC09F083B468
:10085A0031EF04F035EF04F0086A082A36EF04F0A5
:10086A00086A0B500B2408100B6E83B83FEF04F094
:10087A0043EF04F0086A082A44EF04F0086A0B50B0
:10088A000B2408100B6E83BA4DEF04F051EF04F0FD
:10089A00086A082A52EF04F0086A0B500B24081061
:1008AA000B6E83BC5BEF04F05FEF04F0086A082A62
:1008BA0060EF04F0086A0B500B2408100B6E839E3D
:1008CA0006C001F007C002F00CEC09F00B50120050
:1008DA00FAEC08F0FAEC07F0000E326E000E316EF8
:1008EA00818E818E1EEC08F082A07EEF04F080EFEC
:1008FA0004F076EF04F0000E026E640E016ED1EC85
:10090A0006F080B08BEF04F08DEF04F0A2EF04F054
:10091A0031503210D8A494EF04F096EF04F0A2EF0D
:10092A0004F0000E306E000E2F6E000E026E640E82
:10093A00016ED1EC06F026EF05F080B2A7EF04F0C5
:10094A00A9EF04F0B8EF04F031503210D8A4B0EF98
:10095A0004F0B2EF04F0B8EF04F0000E306E010EAE
:10096A002F6E9AEF04F080B4BDEF04F0BFEF04F0ED
:10097A00CEEF04F031503210D8A4C6EF04F0C8EF1D
:10098A0004F0CEEF04F0000E306E020E2F6E9AEFD6
:10099A0004F080B6D3EF04F0D5EF04F0E4EF04F0EE
:1009AA0031503210D8A4DCEF04F0DEEF04F0E4EFAB
:1009BA0004F0000E306E030E2F6E9AEF04F080B82A
:1009CA00E9EF04F0EBEF04F0FAEF04F031503210E3
:1009DA00D8A4F2EF04F0F4EF04F0FAEF04F0000EFA
:1009EA00306E040E2F6E9AEF04F080BAFFEF04F017
:1009FA0001EF05F010EF05F031503210D8A408EFDE
:100A0A0005F00AEF05F010EF05F0000E306E050E46
:100A1A002F6E9AEF04F080BC15EF05F017EF05F082
:100A2A0076EF04F031503210D8A41EEF05F020EF13
:100A3A0005F076EF04F0000E306E060E2F6E9AEF78
:100A4A0004F02FC012F030C013F002EC06F02FC0F1
:100A5A0012F030C013F013EC07F08290000E326EE1
:100A6A00000E316E76EF04F000EF00F00F6E20EE0C
:100A7A0033F010EE10F0050EDBCFE3FFE806FCE2E0
:100A8A000FC012F00CC013F00DC014F09594959895
:100A9A00959A959C959E9592959083908392839E24
:100AAA004E0E026E200E016E0CEC09F0000E166E50
:100ABA0010C00EF0D8900E32D8900E32D8900E3266
:100ACA000E460E4683500E18FB0B0E18836E10C08E
:100ADA000EF0D8900E32D8900E320E3A83500E187D
:100AEA00EF0B0E18836E10C00EF0D8900E320E3A2D
:100AFA000E4683500E18DF0B0E18836E10B002D00C
:100B0A00839C01D0838C838E000E026E020E016ECE
:100B1A000CEC09F0839E130E026E880E016E0CEC2B
:100B2A0009F0162A020E16649DEF05F09FEF05F0F4
:100B3A005DEF05F011C00EF0D8900E32D8900E324B
:100B4A00D8900E320E460E4683500E18FB0B0E1826
:100B5A00836E11C00EF0D8900E32D8900E320E3A33
:100B6A0083500E18EF0B0E18836E11C00EF0D8903A
:100B7A000E320E3A0E4683500E18DF0B0E18836E95
:100B8A0011B002D0839C01D0838C838E000E026E3A
:100B9A00020E016E0CEC09F0839E000E026E280E06
:100BAA00016E0CEC09F0000E046E000E036E12C00A
:100BBA0005F0000E076E280E066E000E55EC03F0C7
:100BCA00000E046E000E036E13C005F0000E076ED1
:100BDA00280E066E000E55EC03F0000E046E000E91
:100BEA00036E14C005F0000E076E280E066E000E86
:100BFA0055EC03F02BEC09F0120037EF06F0160E55
:100C0A00016E890E026ECCEC08F05DEF06F0160E4E
:100C1A00016E730E026ECCEC08F05DEF06F0160E54
:100C2A00016E230E026ECCEC08F05DEF06F0160E94
:100C3A00016E7E0E026ECCEC08F05DEF06F0160E29
:100C4A00016E9E0E026ECCEC08F05DEF06F0160EF9
:100C5A00016E680E026ECCEC08F05DEF06F0FF0044
:100C6A005DEF06F012C014F013C015F01550000A1B
:100C7A00D8B442EF06F034EF06F01450000AD8B4A4
:100C8A0004EF06F0010AD8B40CEF06F0030AD8B450
:100C9A0014EF06F0010AD8B41CEF06F0070AD8B41C
:100CAA0024EF06F0010AD8B42CEF06F034EF06F070
:100CBA002BEC09F0000EB0EC08F0010E0C6E010EE0
:100CCA007AEC06F0160E0D6E0E6A54EC07F0010E61
:100CDA000C6E020E7AEC06F0410E0D6E0D50D8A481
:100CEA00060E0E6E54EC07F012000D6EBDEF06F004
:100CFA00000E046E000E036E0C507F0F056E000E80
:100D0A00076E280E066E000E55EC03F0D0EF06F0C3
:100D1A00000E046E000E036E0C50BF0F056E000E1F
:100D2A00076E280E066E000E55EC03F0D0EF06F0A3
:100D3A00000E046E000E036E0C50930F056E000E2B
:100D4A00076E280E066E000E55EC03F0D0EF06F083
:100D5A00000E046E000E036E0C50D30F056E000ECB
:100D6A00076E280E066E000E55EC03F0D0EF06F063
:100D7A000D50010AD8B47DEF06F0030AD8B48DEFFE
:100D8A0006F0010AD8B49DEF06F0070AD8B4ADEF11
:100D9A0006F0D0EF06F01200000ECD6ECD92300EA6
:100DAA00CD12000E046E010E036EFA0E0A6E240EA8
:100DBA00096E000E066E000E056E07EF07F0000EB4
:100DCA00086E000E076EFAEF06F00A50CF6E09C0E1
:100DDA00CEFF9E90CD809EA0F5EF06F0F7EF06F0CD
:100DEA00F0EF06F0CD90074A082A0350075C04503A
:100DFA000858D8A003EF07F005EF07F0EAEF06F06E
:100E0A00054A062A0150055C02500658D8A010EF80
:100E1A0007F012EF07F0E4EF06F012002DEF07F0EB
:100E2A0093EC08F053EF07F076EC08F053EF07F075
:100E3A00D5EC07F053EF07F083EC07F053EF07F018
:100E4A0059EC08F053EF07F03CEC08F053EF07F0C9
:100E5A0012C014F013C015F01550000AD8B438EFB8
:100E6A0007F053EF07F01450000AD8B415EF07F053
:100E7A00010AD8B419EF07F0030AD8B41DEF07F036
:100E8A00010AD8B421EF07F0070AD8B425EF07F012
:100E9A00010AD8B429EF07F053EF07F012006AEFFE
:100EAA0007F00DC0F6FF0EC0F7FFF86A050EF764EB
:100EBA0003D00800F55005D0F6CFE1FFF7CFE2FFE7
:100ECA00E7501CEC09F00D4A0E2A0DC0F6FF0EC0C1
:100EDA00F7FFF86A050EF76403D00800F55005D04D
:100EEA00F6CFE1FFF7CFE2FFE7500009D8A480EF81
:100EFA0007F082EF07F056EF07F012008168130E31
:100F0A00026E880E016ED1EC06F0B50E816E130EDC
:100F1A00026E880E016ED1EC06F0950E816E130EEC
:100F2A00026E880E016ED1EC06F0850E816E130EEC
:100F3A00026E880E016ED1EC06F0840E816E000EF0
:100F4A00026EFA0E016ED1EC06F0800E816EAFECE5
:100F5A0007F012002BEC09F0000EB0EC08F0010EBD
:100F6A000C6E010E7AEC06F04F0E0D6E0D50D8A4E1
:100F7A00060E0E6E54EC07F0010E0C6E020E7AECA1
:100F8A0006F0940E0D6E0D50D8A4060E0E6E54EC9B
:100F9A0007F00B0E026EB80E016ED1EC06F01200CD
:100FAA00EF0E816E130E026E880E016ED1EC06F002
:100FBA00A50E816E270E026E100E016ED1EC06F0A0
:100FCA00850E816E170E026E700E016ED1EC06F060
:100FDA00840E816E000E026EFA0E016ED1EC06F0DE
:100FEA00800E816EAFEC07F01200000EB0EC08F034
:100FFA00010E0C6E010E7AEC06F0320E0D6E0D50DB
:10100A00D8A4060E0E6E54EC07F0010E0C6E020EFA
:10101A007AEC06F05D0E0D6E0D50D8A4060E0E6E1B
:10102A0054EC07F01F0E026E400E016ED1EC06F072
:10103A001200000EB0EC08F0010E0C6E010E7AECF4
:10104A0006F0120E0D6E0D50D8A4060E0E6E54EC5C
:10105A0007F0010E0C6E020E7AEC06F0010E0D6E10
:10106A000D50D8A4060E0E6E54EC07F01200B50E01
:10107A00816E3A0E026E980E016ED1EC06F0850E64
:10108A00816E130E026E880E016ED1EC06F0850E8B
:10109A00816E000E026EFA0E016ED1EC06F0800E21
:1010AA00816EAFEC07F01200950E816E4E0E026E45
:1010BA00200E016ED1EC06F0850E816E030E026ED3
:1010CA00E80E016ED1EC06F0840E816E000E026EFF
:1010DA00FA0E016ED1EC06F0800E816EAFEC07F0CD
:1010EA001200CA0E816E030E026EE80E016ED1EC7A
:1010FA0006F08A0E816E320E026EC80E016ED1ECB7
:10110A0006F0880E816E000E026EFA0E016ED1ECA8
:10111A0006F0800E816EAFEC07F01200CA0E816EE7
:10112A00130E026E880E016ED1EC06F08A0E816EE5
:10113A001F0E026E400E016ED1EC06F0880E816E13
:10114A00000E026EFA0E016ED1EC06F0800E816E70
:10115A00AFEC07F01200116E20EE39F010EE0CF031
:10116A00040EDBCFE3FFE806FCE2000E046E000E7D
:10117A00036E11500C0FD96EDA6ADF50056E000E3D
:10118A00076E280E066E000E55EC03F0120001C021
:10119A0004F0022A0204036E03C0F6FF060EF76E7D
:1011AA00042A0404D96EDA6A0800F5CFDFFFDF509B
:1011BA00D8A4E2EF08F0E4EF08F0CEEF08F012004E
:1011CA00720EF66E120EF76E000EF86E00EE33F027
:1011DA0010EE0FF00900F5CFEEFFE550E150FAE10D
:1011EA00000EF86E00016DEF04F092688068000E40
:1011FA00936E000E956E000E836E0F0E0C6E060E29
:10120A000D6E280E3BEC05F0948082901200040EBD
:10121A00E82EFED70106D8A0020601500210D8A473
:10122A0019EF09F01BEF09F00CEF09F012000C6E30
:10123A00000E046E000E036E0CC005F0000E076E61
:10124A002D0E066E010E55EC03F01200000E046E10
:10125A00000E036E010E056E070E076ED00E066EA7
:10126A00000E55EC03F012000302000000000C0807
:07127A000F0E0D1C181410EB
:020000040030CA
:0E000000FF071F1EFF8385FF0FC00FE00F409C
:00000001FF
