:04000000A4EF07F072
:10060000006573636F6C6861206120626562696474
:100610006100436F6C6F717565206F20636F706F41
:100620002065004361666520636F6D204C656974C9
:100630006500456D206171756563696D656E746FE8
:1006400000507265706172616E646F2E2E2E0042D2
:1006500065626964612070726F6E746100416775D4
:10066000617264652E2E2E0043686F636F6C65693E
:1006700074650043616665204C6F6E676F0043616F
:100680007070756363696E6F0043616665204375C2
:1006900072746F0053697276612D7365210043682F
:0906A0006F636F6C61746500006A
:1006AA000A6E95949598959A959C959E9592959093
:1006BA000AB002D0839001D0838003B002D0839223
:1006CA0001D0838203500410D8A478D0086A05AEFA
:1006DA0001D0082A0846084683500818FB0B081858
:1006EA00836E05C008F0060E096ED8900832092EEE
:1006FA00FCD7083A83500818EF0B0818836E05C018
:10070A0008F0050E096ED8900832092EFCD7083A6F
:10071A00084683500818DF0B0818836E05C008F0D6
:10072A00083A0F0E0816083A084608468350081871
:10073A00BF0B0818836E838E000E026E020E016EC6
:10074A0013EC08F0839E05C008F0D8900832D890C0
:10075A000832D89008320846084683500818FB0B1E
:10076A000818836E05C008F0D8900832D89008326D
:10077A00083A83500818EF0B0818836E05C008F072
:10078A00D8900832083A084683500818DF0B081830
:10079A00836E05B002D0839C01D0838C838E000EB9
:1007AA00026E020E016E13EC08F0839E06C001F081
:1007BA0007C002F013EC08F0000E12009584958829
:1007CA00958A958C838E000E026E020E016E13ECD2
:1007DA0008F0000E83B4010E0B6E83A803D0086ADA
:1007EA00082A01D0086A0B500B2408100B6E83AA42
:1007FA0003D0086A082A01D0086A0B500B24081093
:10080A000B6E83AC03D0086A082A01D0086A0B5021
:10081A000B2408100B6E839E838E000E026E020E4E
:10082A00016E13EC08F083A403D0086A082A01D0E9
:10083A00086A0B500B2408100B6E83A803D0086AB1
:10084A00082A01D0086A0B500B2408100B6E83AAE1
:10085A0003D0086A082A01D0086A0B500B24081032
:10086A000B6E83AC03D0086A082A01D0086A0B50C1
:10087A000B2408100B6E839E06C001F007C002F01D
:10088A0013EC08F00B5012000F6E20EE30F010EE51
:10089A0010F0050EDBCFE3FFE806FCE20FC012F012
:1008AA000CC013F00DC014F095949598959A959CE8
:1008BA00959E9592959083908392839E4E0E026E9A
:1008CA00200E016E13EC08F0000E166E10C00EF02A
:1008DA00D8900E32D8900E32D8900E320E460E466E
:1008EA0083500E18FB0B0E18836E10C00EF0D890B2
:1008FA000E32D8900E320E3A83500E18EF0B0E18A5
:10090A00836E10C00EF0D8900E320E3A0E46835007
:10091A000E18DF0B0E18836E10B002D0839C01D024
:10092A00838C838E000E026E020E016E13EC08F0A9
:10093A00839E130E026E880E016E13EC08F0162ABF
:10094A00020E1664C3D711C00EF0D8900E32D8909A
:10095A000E32D8900E320E460E4683500E18FB0BFE
:10096A000E18836E11C00EF0D8900E32D8900E3247
:10097A000E3A83500E18EF0B0E18836E11C00EF04C
:10098A00D8900E320E3A0E4683500E18DF0B0E1810
:10099A00836E11B002D0839C01D0838C838E000EAB
:1009AA00026E020E016E13EC08F0839E000E026EB8
:1009BA00280E016E13EC08F0000E046E000E036E92
:1009CA0012C005F0000E076E280E066E000E55ECDA
:1009DA0003F0000E046E000E036E13C005F0000E45
:1009EA00076E280E066E000E55EC03F0000E046E1C
:1009FA00000E036E14C005F0000E076E280E066E78
:100A0A00000E55EC03F005EC08F012008EEC07F02E
:100A1A001AEC07F0000E2F6E000E2E6E2C682D6851
:100A2A00818E73EC07F082A0FBD780B013D02E50D2
:100A3A002F10D8A40FD0000E2D6E000E2C6E000EB3
:100A4A002F6E010E2E6E000E026E640E016EACEC5D
:100A5A0006F032D080B208D02E502F10D8A404D07D
:100A6A00000E2D6E010EEAD780B408D02E502F103A
:100A7A00D8A404D0000E2D6E020EE0D780B608D09E
:100A8A002E502F10D8A404D0000E2D6E030ED6D7E8
:100A9A0080B808D02E502F10D8A404D0000E2D6E86
:100AAA00040ECCD780BA08D02E502F10D8A404D068
:100ABA00000E2D6E050EC2D72E042F10D8A4B0D763
:100ACA002C2803E12D28D8B4ABD72CC00FF02DC0A9
:100ADA0010F07CEC05F02CC007F02DC008F028ECD3
:100AEA0006F0F7EC06F082B0FED7829093D72AD0B0
:100AFA00130E016E890E026EE3EC07F03ED0130E60
:100B0A00016E730E026EE3EC07F037D0130E016E1E
:100B1A00230E026EE3EC07F030D0130E016E7E0E48
:100B2A00026EE3EC07F029D0130E016E9E0E026EE0
:100B3A00E3EC07F022D0130E016E680E026EE3ECAE
:100B4A0007F01BD00FC011F010C012F01250000AAB
:100B5A00D8A413D01150000AD8B4CAD7010AD8B4FD
:100B6A00CED7030AD8B4D2D7010AD8B4D6D7070A3F
:100B7A00D8B4DAD7010AD8B4DED705EC08F0010EEA
:100B8A000C6E010EDCEC05F0130E0D6E0E6A83EC92
:100B9A0006F0010E0C6E020EDCEC05F0410E0D6E35
:100BAA000D50D8A4060E0E6E83EC06F012000D6EE0
:100BBA003CD0000E046E000E036E0C507F0F056EC3
:100BCA00000E076E280E066E000E55EC03F012009A
:100BDA00000E046E000E036E0C50BF0F056E000E61
:100BEA00076E280E066E000E55EC03F01200000E7A
:100BFA00046E000E036E0C50930F056E000E076E06
:100C0A00280E066E000E55EC03F01200000E046E5C
:100C1A00000E036E0C50D30F056E000E076E280EE1
:100C2A00066E000E55EC03F012000D50010AD8B4FE
:100C3A00C0D7030AD8B4CCD7010AD8B4D8D7070A80
:100C4A00D8A41200E3D712D0CEEC07F01200B9EC08
:100C5A0007F01200D2EC06F0120057EC06F0120070
:100C6A003BEC07F0120058EC07F0120007C009F03D
:100C7A0008C00AF00A50000AD8A412000950000A53
:100C8A00D8B4E2D7010AD8B4E2D7030AD8B4E2D773
:100C9A00010AD8B4E2D7070AD8B4E2D7010AD8A41D
:100CAA001200E1D781680F0E026EA00E016EACEC45
:100CBA0006F0BF0E816E0B0E026EB80E016EACEC22
:100CCA0006F0B50E816E030E026EE80E016EACECF4
:100CDA0006F0A50E816E0F0E026EA00E016EACEC30
:100CEA0006F0850E816E070E026ED00E016EACEC18
:100CFA0006F0840E816E800E816E120014D00DC033
:100D0A00F6FF0EC0F7FFF86A050EF76403D0080075
:100D1A00F55005D0F6CFE9FFF7CFEAFFEF50F6EC32
:100D2A0007F00D4A0E2A0DC0F6FF0EC0F7FFF86A4B
:100D3A00050EF76403D00800F55005D0F6CFE9FF99
:100D4A00F7CFEAFFEF500009D8B41200D8D7000E47
:100D5A00CD6ECD92300ECD12000E046E000E036ED3
:100D6A0015D0000E066E000E056EFA0ECF6E240E1A
:100D7A00CE6E9E90CD809EA0FED7CD90054A062AC3
:100D8A0005500610D8B4F1D7034A042A0150035C6F
:100D9A0002500458D8B01200E4D7EF0E816E0F0E3D
:100DAA00026EA00E016EACEC06F0AF0E816E0B0E59
:100DBA00026EB80E016EACEC06F0A50E816E130E33
:100DCA00026E880E016EACEC06F0850E816E0B0E7B
:100DDA00026EB80E016EACEC06F0840E816E800EC7
:100DEA00816E120005EC08F0010E0C6E010EDCECAF
:100DFA0005F04F0E0D6E0D50D8A4060E0E6E83EC44
:100E0A0006F0010E0C6E020EDCEC05F0940E0D6E6F
:100E1A000D50D8A4060E0E6E83EC06F00B0E026E71
:100E2A00B80E016EACEC06F01200010E0C6E010E4B
:100E3A00DCEC05F0320E0D6E0D50D8A4060E0E6EC7
:100E4A0083EC06F0010E0C6E020EDCEC05F05D0E72
:100E5A000D6E0D50D8A4060E0E6E83EC06F01F0E12
:100E6A00026E400E016EACEC06F01200B50E816EF9
:100E7A00270E026E100E016EACEC06F0950E816E16
:100E8A00130E026E880E016EACEC06F0850E816EB2
:100E9A00170E026E700E016EACEC06F0840E816EB7
:100EAA00800E816E1200B50E816E3A0E026E980E99
:100EBA00016EACEC06F0850E816E130E026E880E82
:100ECA00016EACEC06F0840E816E000E026EFA0E14
:100EDA00016EACEC06F0800E816E1200010E0C6EF3
:100EEA00010EDCEC05F0120E0D6E0D50D8A4060EA4
:100EFA000E6E83EC06F0010E0C6E020EDCEC05F0B1
:100F0A00010E0D6E0D50D8A4060E0E6E83EC06F07F
:100F1A001200000E936E000E8A6E000E956E000E81
:100F2A00836E0C0E0C6E060E0D6E280E49EC04F044
:100F3A009480829092680F0EC16E806812003C0EF7
:100F4A00F66E100EF76E000EF86E00EE30F010EE30
:100F5A000FF00900F5CFEEFFE550E150FAE1000E7F
:100F6A00F86E00010BEF05F0CA0E816E4E0E026E8E
:100F7A00200E016EACEC06F08A0E816E050E026E32
:100F8A00DC0E016EACEC06F0880E816E800E816E6E
:100F9A001200CA0E816E270E026E100E016EACECA4
:100FAA0006F08A0E816E070E026ED00E016EACEC50
:100FBA0006F0880E816E800E816E120001C003F069
:100FCA0002D0032A022A02C0F6FF060EF76E035069
:100FDA00D96EDA6A0800F5CFDFFFDF50D8B4120005
:100FEA00F0D70C6E000E046E000E036E0CC005F0F6
:100FFA00000E076E2D0E066E010E55EC03F0120060
:10100A00000E046E000E036E010E056E070E076ECB
:10101A00D00E066E000E55EC03F01200040EE82EF8
:10102A00FED70106D8A0020601500210D8B4120059
:10103A00F5D70302000000000C080F0E0D1C18144F
:01104A001095
:020000040030CA
:0E000000FF071F1EFF8385FF0FC00FE00F409C
:00000001FF
